:1000000010080020B50A0000A70700000B0A000036
:1000100000000000000000000000000000000000E0
:10002000000000000000000000000000930A000033
:1000300000000000000000009F0A0000ED0A000020
:10004000EF0A0000F10A0000F30A0000F50A0000C0
:10005000F70A0000F90A0000FB0A0000FD0A000090
:10006000FF0A0000010B0000030B0000050B00005D
:10007000070B0000090B00000B0B00000D0B00002C
:100080000F0B0000110B000000000000130B00001C
:10009000150B0000170B0000190B00001B0B0000D4
:1000A0001D0B00001F0B0000210B0000230B0000A4
:1000B000250B0000270B0000290B00002B0B000074
:1000C000F0B5020052B2002A1CD44B4A03005BB2C6
:1000D0009B0804246343D258FF238407A40F0825F8
:1000E0006C43A3409A438901C9B283079B0F08243C
:1000F000634399401143404A40B280080423584367
:10010000115022E03D4B020052B21207120F083A82
:10011000920804246243394C05006DB22D072D0F5F
:10012000083DAD08042675436459FF258607B60FC0
:1001300008277E43B540AC438901C9B28007800FD0
:1001400008256843814021439950F0BD80B5411E88
:1001500080225204914201D301200EE0401E284922
:10016000086003210020C043FFF7AAFF00202549B3
:100170000860072024490860002002BD80B523489C
:100180000068C02188432149086080204004FFF7AF
:10019000DDFF05201C49086001BD38B584B00500AD
:1001A0000C006A462100280000F0B5F80098A04233
:1001B0000FD16846C07900280BD1684640790028E5
:1001C00007D168468079002803D168460079032862
:1001D00010D00294002002A9C871002002A9487121
:1001E000002002A98871032002A9087102A9280031
:1001F00000F061F805B030BD00E400E01CED00E067
:1002000014E000E018E000E010E000E0002400400E
:10021000144815490860704780B50121134800F063
:10022000FBF8062012490860FFF7F2FF01BDF8B5A0
:1002300000200090002001900020029001206946DB
:100240000873684600F016F905B000BD80B50020BF
:1002500000F028F9FFF7EBFF01BD03200549086016
:10026000704700005A5A3412001401400500000182
:10027000041401400400004080B572B6FFF7CCFFC3
:10028000FFF7C6FFFFF77AFFFFF7E0FF012000F05E
:1002900015F9002000F024F9FFF7DFFF62B601BD79
:1002A00000B5836AD2B2012A01D1194301E08B4320
:1002B0001900816200BD70B50022002200220022D8
:1002C00026E0012393400C681C409C421FD1046827
:1002D0009C43CD7995402543056044689C438D79C6
:1002E00095402543456084689C434B799340234364
:1002F00083600323140002256C43A340C4689C431D
:100300000B79150002267543AB402343C360521C92
:10031000102AD6D370BD10B50023002300E05B1C6B
:10032000102B04D201249C400C40002CF7D0102B41
:1003300035D2116004680C40DC40012C02D101244C
:10034000D47101E00024D47144680C40DC40012CDD
:1003500002D10124947101E0002494718468214049
:10036000D940012902D10121517101E000215171CF
:10037000C06802214B43D8408007800F002802D17B
:10038000002010710BE0012802D10120107106E05D
:10039000022802D10220107101E00320107110BD6B
:1003A00000B5C0B2012807D119480068802189042E
:1003B00001431748016005E01548006812490140F3
:1003C0001348016000BD12490968104A0A40E02143
:1003D000C902014011430E48016070470C49096889
:1003E0000C4A0A40E021C90001401143084801605D
:1003F000704707490968072291434007400F0843A7
:100400000349086070470000FFFFFFFDFFFFF8FF92
:1004100000240040FFF8FFFF10B50022F0231B0569
:10042000034080246404A3420CD08024A404A3428B
:100430000AD0C024A404A34208D08024E404A34228
:1004400006D007E0134A05E0134A03E0134A01E02F
:10045000134AFFE7002A0CD080B201238340C9B2BF
:10046000002903D010680343136002E0106898432A
:10047000106010BD10B504002068FFF7BAFF606877
:10048000FFF7ACFFA068FFF79EFF207BFFF788FF18
:1004900010BD0000202400402424004028240040F7
:1004A0002C24004004490968032291438007800FEF
:1004B00008430149086070470010004000B5C0B211
:1004C000012806D10F480068012101430D48016051
:1004D00005E00C480068012188430A49086000BD16
:1004E00000B5C0B2012806D10748006801210143C8
:1004F0000548016005E0044800680121884302497D
:10050000086000BD002800400428004070B50400C9
:10051000160001258D406D1E280000F0DFF8010057
:10052000664800F0EBF86649086001216548FFF76E
:1005300073FF2000C0B201280BD18021490162481D
:10054000FFF72BFE0122802149015F48FFF7A8FE3B
:1005500064E02000C0B202280BD1802189015A48F2
:10056000FFF71BFE0122802189015748FFF798FE03
:1005700054E02000C0B2032809D101215348FFF7FD
:100580000CFE012201215148FFF78AFE46E02000BF
:10059000C0B2042809D102214C48FFF7FEFD012218
:1005A00002214A48FFF77CFE38E02000C0B205284F
:1005B00009D140214648FFF7F0FD0122402144487F
:1005C000FFF76EFE2AE02000C0B206280BD1802182
:1005D00009023D48FFF7E1FD0122802109023A4866
:1005E000FFF75EFE1AE02000C0B2072809D10421FF
:1005F0003848FFF7D2FD012204213648FFF750FEAC
:100600000CE02000C0B2082808D108213148FFF7CB
:10061000C4FD012208212F48FFF742FE012000F00F
:10062000C3F8012000F0CEF8300000F0DDF8012022
:1006300000F0E4F8E4B2200000F048F9012000F0F6
:1006400033F9002000F002F9280000F01BF9002027
:1006500000F0EAF8002000F003F900F018F970BD8E
:1006600038B51D000024C0B2FFF750FF012000F094
:10067000F7F8641C200080B296214900884203D21A
:1006800000F009F90028F4D000F001F9002000F092
:10069000E7F8A4B29620400084420DD20E480068CC
:1006A00080B200F01BF80649096800F021F900F05B
:1006B00077F92880012000E0002032BD0000404092
:1006C0000400002007000001800C0040C00C004026
:1006D000400D0040400C004008FA01409D210200FE
:1006E0000AD002D4491E9218FCD5C905100A120678
:1006F000524100D3012A48417047000030B4050040
:100700004D400122D20715404B180418240E28D062
:100710001B0E2FD0FF2C34D0FF2B37D0E41A000251
:1007200009021043114343084808D10D1B1A02D295
:10073000641EDB181B18DB18834200D31B1A4941C7
:10074000F9D37F3426DDFE2C08DAE4054808C90712
:10075000194391416041284330BC7047FF20C005D8
:10076000F9E728001B0E03D0FF2BF5D14902F3D087
:10077000D043F1E7FF2C01D14002F9D1FF20C005A1
:10078000E9E74002F4D1FF2BF8D1F1E72800490254
:10079000E2D0EDE70B0200202442DCD15B129B1C6F
:1007A000D9D9D805D7E7FEE700B5C0B2012803D1F3
:1007B0000A200349086002E005200149086000BDE5
:1007C00000E0014000B5C0B2012806D1144800681D
:1007D000802101431248016005E011480068802132
:1007E00088430F49086000BD0E4909680E229143F5
:1007F0000E2202400A430B480260704700B5C0B2A7
:10080000012806D10748006801210143054801601D
:1008100005E004480068012188430249086000BDE2
:1008200014F8014024F8014000B5C0B2012806D1F7
:100830002B480068802101432948016005E02848D1
:100840000068802188432649086000BD2449096862
:100850000422914304221040084321490860704754
:1008600000B5C0B2012806D11D480068012101432E
:100870001B48016005E01A480068012188431849B7
:10088000086000BD4005400D164908607047012012
:1008900015490860704700B513480068C00701D5C6
:1008A000012000E0002000BD00B5C0B2012806D143
:1008B0000E480068202101430C48016005E00B4808
:1008C0000068202188430949086000BD074909687C
:1008D0000F2291430007000F084304490860704746
:1008E00000FA014004FA01400CFA014010FA0140FC
:1008F00030B405004D400122D20715404B180418B2
:10090000240E2ED01B0E32D0FF2C34D0FF2B3AD029
:10091000E4180002090210431143000A090A944630
:10092000C2B24A43000AC3B24B43000A4843110A09
:100930005B181A43D2B2190A091801D44918641E67
:10094000080A7F3C23DBFE2C08DAE4050906114384
:10095000634699416041284330BC7047FF20C00581
:10096000F9E728001B0EFF2BF6D1D043F4E728004F
:10097000FF2CF1D1F9E74002F7D1FF2B01D1490259
:10098000F3D1E005E7E7D8054902E4D0EDE74302FB
:100990000020641CDFD15B129B1CDCD9D805DAE790
:1009A0000122D2070118090E7F3910D449421F31A4
:1009B0000FD4001805D2C0011043C84000D5D04361
:1009C0007047C0011043C84005D440427047002022
:1009D00070470042F3D51000704730B4012201681F
:1009E000001D00290FD00368C31844680830144262
:1009F00002D04D466D1E64191D6825601B1D241D07
:100A0000091FECD0F8E730BC7047FEE710B5074986
:100A100079441831064C7C44163404E0081D0A68F9
:100A2000891888470100A142F8D110BD08000000D4
:100A300018000000A7FFFFFF0C000000A40000004A
:100A4000000000200000000080B5FFF715FC044BFB
:100A500002220A210120FFF703FE02490870FEE787
:100A6000080000200A00002000F00DF8002801D046
:100A7000FFF7CCFF00BF00BF002000BF00BFFFF7A3
:100A8000E3FF00F002F80120704780B500F002F8A3
:100A900001BDFEE70746384600F002F8FBE7FEE737
:100AA00080B500BF00BF024A11001820ABBEFBE7B3
:100AB000260002000148804701480047C50A00009F
:100AC000D50A0000014802490860704700127A0008
:100AD0000000002000BF00BF00BF00BFFFF7C4FF41
:100AE00000127A000000000000000000FEE7FEE7B0
:100AF000FEE7FEE7FEE7FEE7FEE7FEE7FEE7FEE7CE
:100B0000FEE7FEE7FEE7FEE7FEE7FEE7FEE7FEE7BD
:100B1000FEE7FEE7FEE7FEE7FEE7FEE7FEE7FEE7AD
:0C0B2000FEE7FEE7FEE7FEE7FEE7FEE76B
:0400000500000AD518
:00000001FF
